:1000000095C00000AFC00000ADC00000ABC0000054
:10001000A9C00000A7C00000A5C00000A3C0000048
:10002000A1C000009FC000000C9418190C94DD18AA
:1000300099C0000097C0000095C0000093C0000068
:1000400091C0000062C100008DC000008BC00000A4
:1000500089C0000087C0000085C0000083C0000088
:1000600081C000007FC000007DC000007BC0000098
:1000700079C0000077C0000075C0000073C00000A8
:1000800071C000006FC000006DC000006BC00000B8
:1000900069C0000067C0000065C0000063C00000C8
:1000A00061C000005FC000005DC0000012011001CF
:1000B00000000008EB03452001000102DC010902F9
:1000C00020000101008032090400000208065000EF
:1000D00007058302400005070504024000050403EC
:1000E000090418034400650061006E00200043000D
:1000F00061006D0065007200610000002E034C007D
:1001000055004600410020004D006100730073005F
:100110002000530074006F007200610067006500EA
:100120002000440065006D006F00000011241FBE18
:10013000CFEFDAE0DEBFCDBF11E0A0E0B1E0ECED43
:10014000FAE302C005900D92A23CB107D9F714E082
:10015000A2ECB1E001C01D92A830B107E1F789D04F
:100160000C946C1D4DCF25B1982F91709095216006
:10017000922395B92BB1982F90729095206292237B
:100180009BB998B180789F77982B98B9089580EAA9
:10019000EACF81E0E8CF0F931F938C0180E2E3DF89
:1001A000C801F9D4182F80E2DEDF812F1F910F9153
:1001B000089588E391E00C94AE1C88E391E00E94DE
:1001C000921C80FD02C081E801C080E2CCCF1F9369
:1001D00084B7877F84BF18E10FB6F894109360004E
:1001E000109260000FBE80E090E020E80FB6F89417
:1001F00020936100809361000FBE209A289A559A3F
:100200005D9A3F9A4798249A2C9A209A289A84B10A
:10021000866084B923982B9A8DB581608DBD209816
:100220008CE58CBD0E94C01867D688E090E0909362
:10023000CD008093CC0086E08093CA001092C80065
:100240001093C900539A5A9A81E19AE790938900D2
:10025000809388008CE08093810082E080936F001F
:100260001FD2882319F481E87EDFFFCFF5D11F91DB
:100270000895EF92FF920F931F93DF93CF93CDB723
:10028000DEB7C257D0400FB6F894DEBF0FBECDBF69
:100290009EDF80E091E00E94EB1C80E062EC71E068
:1002A00048D7882321F481E191E00E94EB1CCE0124
:1002B00001966EE171E041E00E943710882349F415
:1002C00089E291E00E94EB1C04C0C8010E94EB1C73
:1002D00007C08E010F5D1F4F7E010894E11CF11CC9
:1002E000C80162E570E0A7010E94EB0E892B69F757
:1002F000C7010E942C1081E036DF789488E391E0FA
:100300000E94661B0E94511BF9CF1F920F920FB6DD
:100310000F9211242F933F934F935F936F937F938B
:100320008F939F93AF93BF93EF93FF93F3D5FF9179
:10033000EF91BF91AF919F918F917F916F915F915D
:100340004F913F912F910F900FBE0F901F901895D6
:10035000DA01923049F0933061F09130F9F4ECEA2F
:10036000F0E022E130E01EC0EEEBF0E020E230E011
:1003700019C0813049F0813018F0823079F408C01A
:10038000EEEDF0E0849107C0E2EEF0E0849103C06E
:10039000ECEFF0E08491282F30E004C0E0E0F0E0E2
:1003A00020E030E0ED93FC93C90108952C9A805031
:1003B000904108F42C98089595B12C9A85B19F6EC0
:1003C0008061982395B90895F7DF87ED8EBD0DB450
:1003D00007FEFDCF1EBC0DB407FEFDCF0EB407FE19
:1003E000F9CFEACF9C0135E0969587953A95E1F7EC
:1003F0008EBD0DB407FEFDCF822F880F880F880FAA
:10040000872B8EBD0DB407FEFDCF6EBD0DB407FE6C
:10041000FDCF08958F929F92AF92BF92CF92DF92BD
:10042000EF92FF920F931F93CF93DF935A016901CD
:10043000F9E0660F771F881F991FFA95D1F79B0186
:10044000AC01E9E05695479537952795EA95D1F7A0
:100450007901EB01D170C901A9DF84E88EBD0DB42B
:1004600007FEFDCFCE0144E0969587954A95E1F7CA
:10047000182F80E090E0BE01B5DF00E0882483946F
:1004800040C0E6019924103229F59EDF002311F4C3
:1004900083E801C086E88EBD0DB407FEFDCFC7011D
:1004A00060E070E09FDF0894E11CF11C2C9B0825A4
:1004B000C7017CDF81DF002311F484E801C087E8F5
:1004C0008EBD0DB407FEFDCF80E090E060E070E0EF
:1004D00089DF10E0FE0190E081918EBD0DB407FE32
:1004E000FDCF9F5F9031C1F760961F5F939480E2CC
:1004F000981649F680E092E0C80ED91E0894A1082B
:10050000B108A114B10409F0BCCF5EDF002311F4DF
:1005100083E801C086E88EBD0DB407FEFDCFC7019C
:1005200060E070E05FDF50DF2C9ADF91CF911F9188
:100530000F91FF90EF90DF90CF90BF90AF909F9082
:100540008F900895AF92BF92CF92DF92EF92FF9279
:100550000F931F93CF93DF936A01790109E0660F30
:10056000771F881F991F0A95D1F79B01AC0119E0ED
:1005700056954795379527951A95D1F78901EB013F
:10058000D170C90113DF82ED8EBD0DB407FEFDCF22
:10059000C801BE0127DF1EBC0DB407FEFDCF1EBC87
:1005A0000DB407FEFDCF1EBC0DB407FEFDCF1EBC73
:1005B0000DB407FEFDCFB4E0D695C795BA95E1F727
:1005C0006C2FA2EDAA2E39C0E701BB246032E9F4FA
:1005D0000F5F1F4FC801EADEAEBC0DB407FEFDCFB2
:1005E000C80160E070E0FEDE1EBC0DB407FEFDCF6A
:1005F0001EBC0DB407FEFDCF1EBC0DB407FEFDCF23
:100600001EBC0DB407FEFDCF60E0FE0190E01EBCF5
:100610000DB407FEFDCF8EB581939F5F9031B9F782
:1006200060966F5FB39480E2B81681F680E092E046
:10063000E80EF91E0894C108D108C114D10421F6AE
:100640002C9ADF91CF911F910F91FF90EF90DF9047
:10065000CF90BF90AF9008952C9887ED8EBD0DB4CC
:1006600007FEFDCF1EBC0DB407FEFDCF0EB401FE8C
:1006700015C0A2DE8DE38EBD0DB407FEFDCF8AE26C
:100680008EBD0DB407FEFDCF8FE78EBD0DB407FE06
:10069000FDCF8AE98EBD0DB407FEFDCF2C9A0895DB
:1006A0002C988FE98EBD0DB407FEFDCF1EBC0DB496
:1006B00007FEFDCF8EB52C9A90E08F3109F491E0C2
:1006C000892F0895AF92BF92CF92DF92EF92FF925F
:1006D0000F931F93DF93CF930F92CDB7DEB75C01DB
:1006E0007901E9E0440F551F661F771FEA95D1F79E
:1006F000DB01CA0139E0B695A795979587953A959C
:10070000D1F78C012FEFC22E21E0D22EC422D522A8
:100710004DDE82ED8EBD0DB407FEFDCFC801B601E2
:1007200061DE1EBC0DB407FEFDCF1EBC0DB407FE7E
:10073000FDCF1EBC0DB407FEFDCF1EBC0DB407FEE1
:10074000FDCF0E944A18882309F0C4C094E0D694D3
:10075000C7949A95E1F79C2D82EDC82EADC0DD249B
:100760008091E80085FD0CC08091E8008E77809331
:10077000E80099830E944A189981882309F0AAC049
:100780009032E9F40F5F1F4FC80110DECEBC0DB4EC
:1007900007FEFDCFC80160E070E024DE1EBC0DB492
:1007A00007FEFDCF1EBC0DB407FEFDCF1EBC0DB471
:1007B00007FEFDCF1EBC0DB407FEFDCF90E01EBCB2
:1007C0000DB407FEFDCF8EB58093F1001EBC0DB4B5
:1007D00007FEFDCF8EB58093F1001EBC0DB407FE61
:1007E000FDCF8EB58093F1001EBC0DB407FEFDCF8A
:1007F0008EB58093F1001EBC0DB407FEFDCF8EB503
:100800008093F1001EBC0DB407FEFDCF8EB5809322
:10081000F1001EBC0DB407FEFDCF8EB58093F10034
:100820001EBC0DB407FEFDCF8EB58093F1001EBC3B
:100830000DB407FEFDCF8EB58093F1001EBC0DB444
:1008400007FEFDCF8EB58093F1001EBC0DB407FEF0
:10085000FDCF8EB58093F1001EBC0DB407FEFDCF19
:100860008EB58093F1001EBC0DB407FEFDCF8EB592
:100870008093F1001EBC0DB407FEFDCF8EB58093B2
:10088000F1001EBC0DB407FEFDCF8EB58093F100C4
:100890001EBC0DB407FEFDCF8EB58093F100F501AF
:1008A00080AD8823B9F49F5FD394F0E2DF1609F09E
:1008B00057CF0894E108F108E114F10409F04FCF93
:1008C0008091E80085FD05C08091E8008E778093D7
:1008D000E8002C9A0F90CF91DF911F910F91FF901C
:1008E000EF90DF90CF90BF90AF9008959F92AF921E
:1008F000BF92CF92DF92EF92FF920F931F93DF93FD
:10090000CF930F92CDB7DEB75C01790109E0440FB8
:10091000551F661F771F0A95D1F7DB01CA0119E041
:10092000B695A795979587951A95D1F78C01AFEF56
:10093000CA2EA1E0DA2EC422D52238DD84E88EBD8D
:100940000DB407FEFDCF80E090E0B6014BDD0E94C4
:100950004A18882309F0CAC0F4E0D694C794FA95DF
:10096000E1F79C2DDD2499249394A3C0CC2480919D
:10097000E80085FD0CC08091E8008B778093E8004B
:1009800099830E944A189981882309F0AFC0903258
:1009900019F51ADDDD2011F483E801C086E88EBD6B
:1009A0000DB407FEFDCFC80160E070E01BDD0F5FF6
:1009B0001F4F2C9BD924C801F9DCDD2011F484E8F9
:1009C00001C087E88EBD0DB407FEFDCF80E090E04A
:1009D00060E070E007DD90E08091F1008EBD0DB425
:1009E00007FEFDCF8091F1008EBD0DB407FEFDCF57
:1009F0008091F1008EBD0DB407FEFDCF8091F10016
:100A00008EBD0DB407FEFDCF8091F1008EBD0DB4FB
:100A100007FEFDCF8091F1008EBD0DB407FEFDCF26
:100A20008091F1008EBD0DB407FEFDCF8091F100E5
:100A30008EBD0DB407FEFDCF8091F1008EBD0DB4CB
:100A400007FEFDCF8091F1008EBD0DB407FEFDCFF6
:100A50008091F1008EBD0DB407FEFDCF8091F100B5
:100A60008EBD0DB407FEFDCF8091F1008EBD0DB49B
:100A700007FEFDCF8091F1008EBD0DB407FEFDCFC6
:100A80008091F1008EBD0DB407FEFDCF8091F10085
:100A90008EBD0DB407FEFDCFF50180AD882331F585
:100AA0009F5FC394F0E2CF1609F061CF0894E1088C
:100AB000F108E114F10409F059CF86DCDD2011F4CE
:100AC00083E801C086E88EBD0DB407FEFDCFC801E6
:100AD00060E070E087DC78DC8091E80085FD05C08F
:100AE0008091E8008B778093E8002C9A0F90CF914B
:100AF000DF911F910F91FF90EF90DF90CF90BF900B
:100B0000AF909F9008950F931F93CF93DF938C0125
:100B1000862FF80140A1578D668D758DC3A1D2A196
:100B20004030F0E15F07F0E06F07F0E07F0768F02A
:100B300080917301807F85608093730181E280934F
:100B40007D0110927E0180E021C0882321F0C80140
:100B50009E01B8DD03C0C8019E01C8DE9E0140E0D1
:100B600050E089E0220F331F441F551F8A95D1F7AB
:100B7000F80184899589A689B789821B930BA40BF8
:100B8000B50B848B958BA68BB78B81E0DF91CF91D2
:100B90001F910F910895CF92DF92EF92FF920F93E2
:100BA0001F93DF93CF93CDB7DEB728970FB6F89496
:100BB000DEBF0FBECDBF6C01FC01838D8D3109F40A
:100BC000AFC08E3190F4823119F1833138F488232B
:100BD00009F4E3C0833009F0E6C04FC08A3109F45C
:100BE000C2C08B3109F0DFC0D8C0883209F4B5C06B
:100BF000893238F48E3109F4D0C0853209F0D3C07F
:100C000061C08A3209F4A6C08F3209F0CCC0C5C0D9
:100C1000F601078D168D848D90E083709070892B7E
:100C200009F082C0858D882309F07EC078010532E5
:100C3000110518F094E2E92EF12C83E891E0B70158
:100C400040E050E00E942217C8018E199F0960E021
:100C500070E00E9473178091E8008E778093E8001F
:100C6000970140E050E0F60184899589A689B7890B
:100C7000821B930BA40BB50B8BC0F601178D012FB4
:100C8000133108F002E181E791E0602F70E040E06D
:100C900050E00E942217812F90E0801B910960E0B4
:100CA00070E00E9473178091E8008E778093E800CF
:100CB000F60184899589A689B789801B9109A109C4
:100CC000B10966C08FEF9FE0A0E0B0E089839A830E
:100CD000AB83BC8380E092E0A0E0B0E08D839E8394
:100CE000AF83B887CE01019664E070E040E050E049
:100CF0000E94D116CE01059664E070E040E050E01D
:100D00000E94D1168091E8008E778093E800F6016A
:100D100084899589A689B7890897A109B10938C03E
:100D2000F601848D82FD08C080917301807F85600B
:100D30008093730184E23EC0B3DC882371F5809117
:100D40007301807F84608093730110927D01109203
:100D50007E0133C0C60160E002C0C60161E0D3DE9F
:100D6000882359F12CC01092F1001092F1001092DA
:100D7000F1001092F1008091E8008E778093E800F6
:100D8000F60184899589A689B7890497A109B109D3
:100D9000848B958BA68BB78B12C0F601148A158AAB
:100DA000168A178A0CC080917301807F85608093BA
:100DB000730180E280937D01CACF80E00AC08091F8
:100DC0007301807F8093730110927D0110927E01E8
:100DD00081E028960FB6F894DEBF0FBECDBFCF914D
:100DE000DF911F910F91FF90EF90DF90CF900895CA
:100DF00080E0089580E00895662311F084E008956E
:100E000080E00895DF93CF9300D000D000D0CDB71D
:100E1000DEB7CE010196EAD02C8130E040E050E010
:100E2000A901332722278D8190E0A0E0B0E0F5E111
:100E3000880F991FAA1FBB1FFA95D1F7282B392BB2
:100E40004A2B5B2B898190E0A0E0B0E0EBE0880FBB
:100E5000991FAA1FBB1FEA95D1F7282B392B4A2BC4
:100E60005B2B8A8190E0A0E0B0E075E0880F991FCD
:100E7000AA1FBB1F7A95D1F7282B392B4A2B5B2B46
:100E80008B81869590E0A0E0B0E0282B392B4A2B8F
:100E90005B2B8E8190E04496AA2797FDA095BA2FF0
:100EA00069E1880F991FAA1FBB1F6A95D1F7282BEC
:100EB000392B4A2B5B2BB901CA0126960FB6F89441
:100EC000DEBF0FBECDBFCF91DF9108950F93FB0121
:100ED000CA01B901402F50E09F019CDA80E00F91D8
:100EE00008950F93FB01CA01B901402F50E09F0103
:100EF00029DB80E00F9108951092F1031092F20324
:100F00001092F30381E08093F4038093F503109231
:100F1000F60308958091F00391E089278093F00310
:100F2000882309F462C08091F3038F5F8093F303F9
:100F30008091F3038C3308F458C01092F30380912E
:100F4000F2038F5F8093F2038091F2038C3308F4F5
:100F50004CC01092F2038091F1038F5F8093F103F4
:100F60008091F103883108F440C01092F103E091C0
:100F7000F503F0E0EA55FE4FE0818091F503823001
:100F8000C1F48091F60390E060E971E00E94231DB6
:100F9000892B71F08091F60364E60E94171D992356
:100FA00041F08091F60390E083709070892B09F4F2
:100FB000EF5F8091F4038F5F8093F4038091F403DB
:100FC000E81798F491E09093F4038091F5038F5F14
:100FD0008093F5038091F5038D3038F09093F503FD
:100FE0008091F6038F5F8093F6030895F894DC01F7
:100FF000E1EFF3E086E001900D928150E1F7789403
:1010000081E008950F931F93CF93DF938C01EB0141
:10101000BA0120E030E00EC0F801E20FF31FDE015C
:10102000A20FB31F8D919C919183808342505040B9
:101030002E5F3F4F4230510578F7CB018E7FDE01A6
:10104000A80FB91FF801E80FF91F60FF02C08C91CB
:101050008083DF91CF911F910F910895FC0103C010
:1010600061934150504041155105D1F70895EF92D9
:10107000FF920F931F93CF93DF93EC017A018B01C3
:101080008EEF9FEFAFEFBFEFE80EF91E0A1F1B1F99
:101090008E899F89A88DB98D0297A109B109E8169B
:1010A000F9060A071B0728F020E030E040E050E096
:1010B00012C02A8130E040E050E0C801B7010E9430
:1010C000F81C9B01AC018EA19FA1A8A5B9A5280F72
:1010D000391F4A1F5B1FB901CA01DF91CF911F91D0
:1010E0000F91FF90EF900895FC01DB015A968D91CE
:1010F0009C915B979C0140E050E08081833069F4D3
:1011000054968D919C915597A0E0B0E0DC01992711
:101110008827282B392B4A2B5B2BB901CA0108954C
:10112000FC01538F428FAB0166277727558B448B89
:101130000895DB01882311F08BE00895E091F70317
:10114000F091F803309709F01082109709F01C9283
:10115000B093F803A093F70380E00895FC01A08109
:10116000B1811097A9F08C91882391F016962D915A
:101170003C911797828193812817390749F411967A
:101180008C9138DE80FD02C080E0089583E00895F0
:1011900089E008956F927F928F929F92AF92BF9253
:1011A000CF92DF92EF92FF920F931F93CF93DF9333
:1011B000EC014A015B01CAA4DBA4ECA4FDA4C416A3
:1011C000D506E606F70609F44BC08C81882391F119
:1011D000BEE26B2E712C6C0E7D1E8981B301A701BE
:1011E000960101E073DE8823C9F51C828A8D9B8DF0
:1011F000AC8DBD8D2E8D3F8D48A159A1820F931FBF
:10120000A41FB51FC816D906EA06FB0698F41B8171
:101210000FC08A8D9B8DAC8DBD8DC80ED91EEA1E68
:10122000FB1E8981B301A701960101E04FDE115039
:10123000123078F781149104A104B10489F0BE0141
:10124000625D7F4F8981A501940101E04ADE882318
:1012500029F48AA69BA6ACA6BDA603C081E001C066
:1012600080E0DF91CF911F910F91FF90EF90DF9081
:10127000CF90BF90AF909F908F907F906F90089588
:101280008F929F92AF92BF92CF92DF92EF92FF9296
:101290000F931F93CF93DF93EC016A017B01480109
:1012A0005901423051056105710508F4CDC08E89A0
:1012B0009F89A88DB98D481759076A077B0708F0E1
:1012C000C3C08881823009F46EC0833009F489C0BC
:1012D000813011F022E0B5C08A0116950795040F00
:1012E000151FA801452F5527469560E070E08E8DAB
:1012F0009F8DA8A1B9A1480F591F6A1F7B1FCE015E
:1013000049DF282F882309F09CC0D801B170E1E0A3
:10131000EE2EF12CEC20FD20E114F10451F0FE0141
:10132000EA0FFB1F86A58F70982D9295907F982BC2
:1013300001C0982DAC0FBD1F9E969C930F5F1F4F51
:1013400081E08C83A801452F5527469560E070E029
:101350008E8D9F8DA8A1B9A1480F591F6A1F7B1FB1
:10136000CE0118DF282F882309F06BC0A801517027
:10137000EF2849F064E0B694A794979487946A950F
:10138000D1F7682D0BC0FE01E40FF51F66A5607F45
:10139000BB27AB2D9A2D892D8F70682B4C0F5D1FAD
:1013A000FA0166A74EC0452F562F672F77278E8DDF
:1013B0009F8DA8A1B9A1480F591F6A1F7B1FCE019D
:1013C000E9DE282F882309F03CC0CC0CDD1CEE1C84
:1013D000FF1CF601F170BE96EC0FFD1F918280821A
:1013E00030C007E076956795579547950A95D1F7F0
:1013F0008E8D9F8DA8A1B9A1480F591F6A1F7B1F11
:10140000CE01C8DE282F8823E1F412E0CC0CDD1CCD
:10141000EE1CFF1C1A95D1F7F601F170BE96EC0F89
:10142000FD1F80819181A281B38180709070A07036
:10143000B07F88299929AA29BB2980839183A28317
:10144000B38381E08C8301C022E0822FDF91CF91B2
:101450001F910F91FF90EF90DF90CF90BF90AF90D2
:101460009F908F900895BF92CF92DF92EF92FF925C
:101470000F931F93CF93DF936C017A018B0142305E
:1014800051056105710508F4A8C0F60186899789A0
:10149000A08DB18D481759076A077B0708F09DC0DA
:1014A0008081823009F455C0833009F471C08130E5
:1014B00009F098C0EA01D695C795C40FD51FAE01B3
:1014C000452F5527469560E070E0F601868D978D93
:1014D000A0A1B1A1480F591F6A1F7B1FC6015ADE88
:1014E000882309F07FC0FE01F170EC0DFD1DB6A44C
:1014F0002196AE01452F5527469560E070E0F60134
:10150000868D978DA0A1B1A1480F591F6A1F7B1F1F
:10151000C60140DE882309F065C06B2D70E0D170F4
:10152000CC0DDD1D9EA580E0682B792BC701817055
:101530009070892B39F034E0769567953A95E1F70C
:101540009B0123C09B0140E050E03F704070507011
:101550004DC0452F562F672F7727F601868D978D23
:10156000A0A1B1A1480F591F6A1F7B1FC60112DE3F
:101570008823C1F5EE0CFF1C001F111FF701F1704D
:10158000EC0DFD1D86A597A59C0140E050E02EC006
:1015900087E076956795579547958A95D1F7F60137
:1015A000868D978DA0A1B1A1480F591F6A1F7B1F7F
:1015B000C601F0DD8823B1F4B2E0EE0CFF1C001F81
:1015C000111FBA95D1F7F701F170EC0DFD1D26A59D
:1015D00037A540A951A95F7009C021E030E040E083
:1015E00050E004C02FEF3FEF4FEF5FEFB901CA01AA
:1015F000DF91CF911F910F91FF90EF90DF90CF90EF
:10160000BF9008954F925F926F927F928F929F92B8
:10161000AF92BF92CF92DF92EF92FF920F931F9300
:10162000CF93DF93EC012A013B0141155105610580
:10163000710599F48A849B84AC84BD8481149104DF
:10164000A104B10401F18E899F89A88DB98D8816F6
:101650009906AA06BB06B8F41BC005DF9B01AC01C6
:10166000623071058105910508F487C08E899F89D4
:10167000A88DB98D281739074A075B0708F48BC076
:101680005301420105C0A1E08A2E912CA12CB12C5E
:10169000750164010894C11CD11CE11CF11C8E89E8
:1016A0009F89A88DB98DC816D906EA06FB0660F099
:1016B00022E082169104A104B10408F468C0F2E0AB
:1016C000CF2ED12CE12CF12CCE01B701A601CBDE1F
:1016D0009B01AC016115710581059105A9F02F3FB2
:1016E0008FEF38078FEF48078FEF580709F453C083
:1016F000213031054105510509F44DC0C814D90404
:10170000EA04FB0439F643C0BC2CAD2C9E2C8F2C74
:10171000CE01A601B7010FEF1FEF2FEF3FE0B0DDC5
:10172000882349F5411451046104710441F0CE014C
:10173000B301A20186019701A3DD8823E1F4BA86F3
:10174000AB869C868D868E859F85A889B9898F3FBB
:101750002FEF92072FEFA2072FEFB20749F0019763
:10176000A109B1098E879F87A88BB98B81E08D83F2
:10177000A701960110C0813029F021E030E040E05F
:1017800050E009C02FEF3FEF4FEF5FEF04C020E0C4
:1017900030E040E050E0B901CA01DF91CF911F91E4
:1017A0000F91FF90EF90DF90CF90BF90AF909F9000
:1017B0008F907F906F905F904F900895EF92FF927F
:1017C0000F931F93CF93DF938C01EB01DC011596F0
:1017D0007C936E93149716964D915D916D917C91CB
:1017E0001997413051056105710509F49EC0ED91CD
:1017F000FC9186899789A08DB18D481759076A0792
:101800007B0708F092C0411551056105710581F50E
:101810008081833049F442A153A164A175A141158F
:1018200051056105710521F5F801128613861486AC
:1018300015860190F081E02D80859185C817D90724
:1018400008F073C0CE01A4E096958795AA95E1F7BC
:10185000A0E0B0E022A133A144A155A1820F931FC3
:10186000A41FB51FF80186879787A08BB18B49C04D
:101870008281E82EFF24E4E0EE0CFF1CEA95E1F7FC
:1018800021C0F1DDAB01BC014F3FFFEF5F07FFEF70
:101890006F07FFEF7F0711F481E048C04230510528
:1018A0006105710508F441C0D801ED91FC9186896C
:1018B0009789A08DB18D481759076A077B07A8F54E
:1018C000CE19DF09F80180819181CE15DF05C8F6B8
:1018D000D8011A964D935D936D937C931D97C7DB4A
:1018E0009E0144E0369527954A95E1F740E050E0A7
:1018F000260F371F481F591FF80126873787408B4F
:10190000518BCF70D07085E0CC0FDD1F8A95E1F749
:10191000AE96D8018D919C9111978C0F9D1F539677
:101920009C938E93529780E001C082E0DF91CF912B
:101930001F910F91FF90EF9008958F929F92AF9219
:10194000BF92CF92DF92EF92FF920F931F93CF93AC
:10195000DF93EC018B01AC80BD800894A11CB11C0D
:10196000A114B10409F4E5C08E859F85A889B989C1
:101970000097A105B10509F4DCC02FE0822E912C5F
:101980008A209B208114910409F0C0C00196A11DFA
:10199000B11D8E879F87A88BB98B4A855B856C8527
:1019A0007D85E881F981411551056105710539F49D
:1019B00080859185A816B90608F4A8C0BAC08281AE
:1019C00090E001979501A4E036952795AA95E1F757
:1019D00082239323892B09F099C0CF0144DD6B0149
:1019E0007C0182E0C816D104E104F10408F4A3C02C
:1019F0009FEFC9169FEFD9069FEFE9069FEFF90603
:101A000009F49BC0E881F98186899789A08DB18D01
:101A1000C816D906EA06FB0608F46BC0012B09F4C8
:101A200088C04A855B856C857D85CF01EBDD6B01C8
:101A30007C01611571058105910511F487E07EC077
:101A4000613071058105910509F475C06F3FFFEFA5
:101A50007F07FFEF8F07FFEF9F0709F46EC08881B4
:101A6000998140E050E060E070E094DB882309F069
:101A700064C0888199818E9660E070E040E052E019
:101A8000EDDA08811981C801B701A601F0DAF80181
:101A900062A773A784A795A700E011E019C014837B
:101AA0008881998140E050E060E070E073DB88233A
:101AB00009F043C0E881F98182A593A5A4A5B5A545
:101AC0000196A11DB11D82A793A7A4A7B5A70F5F7B
:101AD000E881F9818281081710F382A593A5A4A556
:101AE000B5A5801B9109A109B10982A793A7A4A755
:101AF000B5A7CA86DB86EC86FD8688819981B70109
:101B0000A601B5DA6E877F87888B998BBD82AC8200
:101B100075E0880C991C7A95E1F78EE290E0880ECA
:101B2000991E88819981880D991D9B8B8A8B80E0F5
:101B300005C084E003C082E001C081E0DF91CF9165
:101B40001F910F91FF90EF90DF90CF90BF90AF90DB
:101B50009F908F9008952F923F924F925F926F9235
:101B60007F928F929F92AF92BF92CF92DF92EF922D
:101B7000FF920F931F93CF93DF93EC01162F072F44
:101B80003A011901F90111821082E8DA882E8823BE
:101B900009F00DC18C8187FD54C080FD03C007E0B2
:101BA000802E05C12A853B854C855D858E819F8170
:101BB000A885B985281B390B4A0B5B0BC301A0E034
:101BC000B0E0281739074A075B0708F43901812F6D
:101BD000902F9C012901E7C02E813F8148855985BE
:101BE000DA01C9019170A070B0700097A105B1052C
:101BF00009F096C0E881F981DA01C90119E0B695CA
:101C0000A795979587951A95D1F792809A949822DF
:101C100041F5211531054105510529F46E857F8572
:101C20008889998906C04A895B896C897D89CF0139
:101C30001ADC623071058105910530F48C81806871
:101C40008C83E2E08E2EB3C06F3FFFEF7F07FFEF84
:101C50008F07FFEF9F0709F470C06A8B7B8B8C8B1B
:101C60009D8B088119814A895B896C897D89C801AE
:101C7000FED9611571058105910501F36B017C01A8
:101C8000C90CD11CE11CF11C5301AB2CBB24A69444
:101C9000A114B10409F440C0F8012281492D50E09B
:101CA000C501840F951F30E02817390718F4590132
:101CB000A41AB50AF8018181B201A70196010A2D83
:101CC00010D98823D1F5E881F98184818823F9F03E
:101CD00022A533A544A555A52C193D094E095F0938
:101CE000C501A0E0B0E0281739074A075B0778F480
:101CF00069E0220F331F441F551F6A95D1F7C201B7
:101D0000820F931FBE96BF0140E052E07BD9850150
:101D1000102F0027110F2DC0CE8ADF8AE88EF98E92
:101D2000EE80FF80088519854E895F89688D798DE1
:101D3000888199812FDA882331F08C8180688C83A7
:101D40008824839434C0C701917020E032E0281BBE
:101D5000390B83012615370508F489018E819F818F
:101D600091708E9668817981680F791FC201A801F0
:101D700049D9400E511EC801A0E0B0E02E813F813C
:101D800048855985280F391F4A1F5B1F2E833F83C3
:101D900048875987F10180819181800F911F91833C
:101DA0008083601A710A6114710409F015CF882DBF
:101DB000DF91CF911F910F91FF90EF90DF90CF9027
:101DC000BF90AF909F908F907F906F905F904F905B
:101DD0003F902F9008954F925F926F927F928F92D3
:101DE0009F92AF92BF92CF92DF92EF92FF920F93AA
:101DF0001F93DF93CF9300D000D0CDB7DEB76C0137
:101E00005B014A017C0100E010E00894A108B108E0
:101E100083E0482E512C4C0E5D1E3E010894611C3F
:101E2000711C12C0C401B30141E050E0920193DE85
:101E30008B819C81019759F48981F70181937F01FE
:101E40000F5F1F4F8A3019F00A151B055CF3F7016D
:101E50001082012B11F4CC24DD24C6010F900F90C9
:101E60000F900F90CF91DF911F910F91FF90EF9006
:101E7000DF90CF90BF90AF909F908F907F906F90AA
:101E80005F904F9008950F93CF93DF93EC019A01E9
:101E9000AB01BC01625D7F4F898101E022D88823BC
:101EA00011F023E029C0C45DDD4F88819981CC52B7
:101EB000D24085559A4A11F022E01EC0CC59DF4F1E
:101EC00088819981AA81BB81C456D040B070865464
:101ED0009144A445B04011F420E00EC020E0C05869
:101EE000DF4F88819981AA81BB81B070865491446B
:101EF000A445B04009F021E0822FDF91CF910F91EE
:101F000008950F931F93CF93DF93EC0127D9982F58
:101F1000882309F09BC08C8185FF98C04A8D5B8D1A
:101F20006C8D7D8D8881998135D9982F882309F012
:101F30008DC00E8D1F8DF8018385806283878A8511
:101F40009B85AC85BD85848F958FA68FB78F4E8579
:101F50005F8568897989C801E3D80E940207F80182
:101F6000668B778B808F918F138A128A8C818F7DFD
:101F70008C83E881F98181E084830990D881C02D28
:101F8000CE0140E050E060E070E004D9982F882353
:101F900009F05CC08881833009F04FC08D818823AF
:101FA00009F44BC01AA61BA61CA61DA68E01025D35
:101FB0001F4FC80160E070E040E052E04FD8C45DC0
:101FC000DD4F85E59AEA99838883CC52D24082E539
:101FD00092E5A1E6B1E48EA79FA7A8ABB9ABCE5E10
:101FE000DD4F82E792E7A1E4B1E688839983AA8373
:101FF000BB83C251D2408E859F85A889B989CA5EAC
:10200000DD4F88839983AA83BB83C651D2408A85DA
:102010009B85AC85BD85C65EDD4F88839983AA8389
:10202000BB83CA51D2402A893B894C895D89898109
:10203000B80101E00E9466071D82898160E040E0EE
:1020400050E00E94FC06811181E0982F892FDF91DA
:10205000CF911F910F910895CF93DF93EC0151DF42
:10206000882311F419821882DF91CF9108952F925D
:102070003F924F925F926F927F928F929F92AF9218
:10208000BF92CF92DF92EF92FF920F931F93DF9355
:10209000CF93CDB7DEB7E3970FB6F894DEBF0FBE90
:1020A000CDBF99AB88AB7BAB6AAB892B19F409E048
:1020B000F02E06C5A8A9B9A91D921C92EAA9FBA9F0
:1020C0008081282F30E0205330402A30310548F4F9
:1020D00081818A3331F43296FBABEAAB232B09F0D2
:1020E00061C2E090F703F090F803E114F10419F4F1
:1020F0001CE0F12EE5C4F42FFF71FBA7142F1E7115
:10210000FE86ED86D7018C91882361F011968C9123
:102110000E94FA0680FD06C0112309F4F1C482FD75
:1021200044C2EEC4F7011082118280E00E94F806DA
:1021300080FF03C0B3E0FB2EC3C4112311F082FD66
:1021400034C2C70140E050E060E070E09CDE8130C6
:1021500029F01CA61DA61EA61FA613C0F701E45158
:10216000FE4F8481882309F423C22085318542856E
:1021700053852CA73DA74EA75FA7C701BA01A901A8
:1021800082DE833009F410C4882309F011C2D7011C
:10219000D9968D919C91DA978050924009F008C2AF
:1021A000E4E4F0E0EE0EFF1ED7018D919C91ECEB84
:1021B000FFEFEE0EFF1E3C01882499246114710488
:1021C0008104910469F422E530E0E20EF31ED701A8
:1021D0006D907D908D909C90EEEAFFEFEE0EFF1ECD
:1021E000D7015A966D927D928D929C925D97DE9664
:1021F0004C91DE9713964C931397842F8150823025
:1022000008F0D6C1DB962C91DB9712962C932223F3
:1022100009F4CEC130E0C901019782239323892BB1
:1022200009F0C6C1EFE3F0E0EE0EFF1ED7010D91FD
:102230001C91E1ECFFEFEE0EFF1ED70119961C93E7
:102240000E931897C8018F709070892B09F0B0C158
:10225000E1E4F0E0EE0EFF1ED7018D919C91EFEBD3
:10226000FFEFEE0EFF1E5C01CC24DD24A114B104AF
:10227000C104D10469F42EE430E0E20EF31ED7016C
:10228000AD90BD90CD90DC90E2EBFFEFEE0EFF1E27
:10229000D701DC964D905C90DD974114510409F410
:1022A00087C1242F30E040E050E0C401B3010E9418
:1022B000F81C6BA37CA38DA39EA312014424552478
:1022C000A4E016950795AA95E1F73801882499248A
:1022D000620C731C841C951C660E771E881E991E4A
:1022E000A614B704C804D90408F462C1A618B70834
:1022F000C808D908F701228130E040E050E0C6016B
:10230000B5010E94361DC901DA010097A105B1058A
:1023100009F44EC1863FFFE09F07F0E0AF07F0E011
:10232000BF0710F411E00BC0863F2FEF920720E0AB
:10233000A20720E0B20710F013E001C012E0F2E0C3
:10234000AF2EB12CC12CD12CA80EB91ECA1EDB1E7B
:10235000D7015696AD92BD92CD92DC9259972CA59D
:102360003DA54EA55FA5620E731E841E951E969612
:102370006D927D928D929C929997DA01C901820D9E
:10238000931DA41DB51DF701868F978FA0A3B1A340
:10239000208531851330F9F4232B09F009C12AE592
:1023A00030E0E20EF31EF70180819181A281B381BA
:1023B00026EA3FEFE20EF31EF70182A393A3A4A344
:1023C000B5A3A6019501E2E0220F331F441F551F5C
:1023D000EA95D1F731C0232B09F4EAC02BA13CA127
:1023E0004DA15EA1820F931FA41FB51FF70182A309
:1023F00093A3A4A3B5A3D601C501880F991FAA1F53
:10240000BB1F123019F49C01AD0116C09C01AD0137
:102410002A0D3B1D4C1D5D1D5695479537952795FB
:1024200081E090E0A0E0B0E0A822B922CA22DB223D
:102430002A0D3B1D4C1D5D1D21503E4F4F4F5F4FE0
:1024400099E056954795379527959A95D1F7F701D5
:10245000828D938DA48DB58D82179307A407B50740
:1024600008F4A6C08FEF9FEFAFEFBFEF8687978787
:10247000A08BB18BD7011A961D921D921D921C92B2
:102480001D97133009F078C015961C92EEE5F0E028
:10249000EE0EFF1ED7012D913C91E2EAFFEFEE0E0A
:1024A000FF1E40E050E08CA59DA5AEA5BFA5280F5E
:1024B000391F4A1F5B1FD70152962D933D934D93B1
:1024C0005C935597B701625D7F4F11968C9101E047
:1024D0000E947107882309F04FC0ECE2F2E0EE0E93
:1024E000FF1ED7018D919C91E4EDFDEFEE0EFF1ED6
:1024F00085559A4A09F040C0F70186A597A5A0A97D
:10250000B1A982559245A146B144B1F522E132E02C
:10251000E20EF31EF70180819181A281B3812EEE3C
:102520003DEFE20EF31E82579247A144B14621F5DA
:102530004AE152E0E40EF51EF70180819181A2810B
:10254000B38126EE3DEFE20EF31EF70182879387FB
:10255000A487B58726E132E0E20EF31EF701808101
:102560009181A281B3812AEE3DEFE20EF31EF701C5
:1025700086879787A08BB18BD7011C938091F90335
:102580009091FA0301969093FA038093F9031796BA
:102590009C938E931697F70112A613A614A615A660
:1025A0001482AEC28BE0F82E8BC20AE0F02E88C2F5
:1025B0001DE0F12E85C28C3531F42AA93BA92F5F8D
:1025C0003F4F3BAB2AAB1B8A1C8A1D8A1E8AAAA9D5
:1025D000BBA98C91803278F4CE010D9660E070E05A
:1025E000EDD8F82E18A21F8E17C1EAA9FBA93196C3
:1025F000FBABEAAB07C0BDE0AB2EB12CAC0EBD1EF1
:10260000A5E09A2EAAA9BBA98C918F3271F38C35C3
:1026100061F309A11AA1C80160E270E04BE050E04B
:102620000E942E0840E050E0EE24FF24F8E0CF2E78
:10263000D12CA0E0EAA9FBA9EE0DFF1D2081089492
:10264000E11CF11C213208F467C02F3209F487C263
:102650002C3509F484C22E3219F04C155D0580F03A
:10266000B8E0CB16D10409F0D0C02E3209F0CDC0AD
:10267000AA0FAA0F48E050E0EBE0CE2ED12CDACF23
:1026800027FDA360822F81588F3118F08F558D312F
:1026900010F5EAA9FBA9EE0DFF1D3081832F8054B0
:1026A0008F3320F080548D3708F0AFC0C6010197FA
:1026B0004817590708F0A9C00894E11CF11CF8015B
:1026C000E40FF51F2083CA010196F801E80FF91FF6
:1026D0003083AC011EC0622F70E0E3EBF1E001C07B
:1026E00031968081882329F090E086179707C1F7FB
:1026F0008CC0822F81548A3110F4A26006C0822FD0
:1027000081568A3110F4A1602052F801E40FF51FC0
:1027100020834F5F5F4F8ECF9A2F64E0452B09F4E3
:1027200074C0F8018081853E09F49082F8E0CF16EC
:10273000D10419F49A2F990F990F292F30E0C9016C
:1027400083709070019709F460612C7030702430B0
:10275000310509F46860D8011B966C93C50160E0EF
:1027600070E02CD8482F882369F54B8D5C8D6D8DDA
:102770007E8D8D859E850E94CA08482F882311F57D
:10278000EF8DF8A18081882311F444E01BC083857C
:1027900083FD13C089A19AA19C01D9012BE030E0EF
:1027A000215030405FEF2F3F350761F090818C91D1
:1027B000981719F431961196F3CFC50160E070E0D7
:1027C000BCD8D0CFE9A1FAA18385442339F0F42EF7
:1027D00094E04917E9F482FF1DC01EC082FD18C0B5
:1027E000EF8DF8A1838584FF15C0AAA9BBA9AE0D02
:1027F000BF1DBBABAAAB8D859E85BF010E9474082F
:102800006B8B7C8B8D8B9E8BFDCE76E0F72E04C080
:10281000F42E02C065E0F62E2F8C38A0FF2029F49C
:102820002114310411F456E0F52EBBA52B2F30E016
:10283000C9018C719070892B09F4EEC0FF2009F456
:1028400047C0E4E0FE16D9F58E01035F1F4FC801B3
:1028500060E070E00E94DE0BF82E882381F54B8D3E
:102860005C8D6D8D7E8D8D859E850E94CA08F82EAB
:10287000882329F5EF8DF8A1E081E53E09F44BC1ED
:10288000EE2309F448C1C80161E070E056D8F82E83
:10289000882329F314C00F8D18A1C80160E070E0EF
:1028A00040E250E00E942E0869A17AA1C8014BE0E5
:1028B00050E00E940208ED85FE8581E084832F8C24
:1028C00038A0FF2009F0FCC0FBA5F860FBA708C0FA
:1028D000D1011B968C91817109F00FC122FD0AC1B3
:1028E000BBA5B3FFA8C00E940207F10166877787E6
:1028F000808B918B1386D1015C961D921D921D9247
:102900001C925F978D859E85B1010E9474085B01C2
:102910006C01C10140E050E060E070E00E9490086E
:102920004D845E8481E0F2018483A114B104C1046A
:10293000D10409F480C0D2019A962D913D914D9118
:102940005C919D972FA338A749A75AA7B2E0AB1671
:10295000B104C104D10408F45CC086899789A08DB4
:10296000B18DA816B906CA06DB0608F052C086016A
:10297000750143C0C201B801A7010E94330A3B019F
:102980004C01611571058105910509F4D1C06130D3
:10299000710581059105E9F16F3F2FEF72072FEF68
:1029A00082072FEF920719F4FF24F39489C0C20124
:1029B000B801A70100E010E020E030E00E944009EB
:1029C000F82E882309F07CC0F20186859785A089BE
:1029D000B1898F3FFFEF9F07FFEFAF07FFEFBF0703
:1029E00051F00196A11DB11DF20186879787A08B3A
:1029F000B18B21E0258384017301F20186899789D7
:102A0000A08DB18DE816F9060A071B0708F4B2CFAE
:102A10008FC042E0F42E54C0FF2009F051C0D10114
:102A20001B968C9184FF03C034E0F32E49C021FF34
:102A300002C080FD62C0BBA5B3FF02C0B062BBA7ED
:102A40000D851E85F80182A593A5A4A5B5A5E8A9C5
:102A5000F9A9828F938FA48FB58F378E268E2BA5E1
:102A60002483C801B1010E947408A8A9B9A91E96BF
:102A70006D937D938D939C935197F101848D958DEA
:102A8000A68DB78DE8A9F9A982879387A487B58712
:102A9000A8A9B9A916961D921D921D921C9219976C
:102AA000E8A9F9A9168A178A108E118E118300835E
:102AB000D80116968D919C91179793838283FF245A
:102AC0008F2DE3960FB6F894DEBF0FBECDBFCF912A
:102AD000DF911F910F91FF90EF90DF90CF90BF900B
:102AE000AF909F908F907F906F905F904F903F90AE
:102AF0002F90089528E0F22EE3CF97E0F92EE0CF53
:102B0000CE0101969AA389A3EAA9FBA980818F32FD
:102B100009F051CD52CD4B8D5C8D6D8D7E8D8D85A7
:102B20009E850E94CA08F82E882309F0C8CEB3CE2D
:102B3000ED85FE850894A108B108C108D108A286D8
:102B4000B386C486D586CF014FA158A569A57AA5BD
:102B50000E94CA08F82E882309F46DCFB1CF9A2FAE
:102B600060E0DCCD9C0140910604509107044617BB
:102B7000570718F4F90190E045C06115710511F08F
:102B8000AB01F8CF8091E8008E778093E80040E0B9
:102B900050E0F0CF8091FF03882309F445C08530D1
:102BA00009F444C08091E80083FF02C081E00895E9
:102BB0008091E80082FD32C08091E80080FF22C051
:102BC0008091F3009091F200782F60E0292F30E09F
:102BD000262B372B07C081918093F1004150504044
:102BE0002F5F3F4F4115510519F02830310598F3FB
:102BF00090E02830310509F491E08091E8008E776B
:102C00008093E8004115510529F6992319F606C06D
:102C10008091FF03882341F0853041F08091E800E6
:102C200082FFF6CF80E0089582E0089583E0089562
:102C30009C0140910604509107044617570718F469
:102C4000F90190E046C06115710511F0AB01F8CFB4
:102C50008091E8008E778093E80040E050E0F0CF6C
:102C60008091FF03882309F447C0853009F446C0EA
:102C70008091E80083FF02C081E008958091E80020
:102C800082FD34C08091E80080FF23C08091F30072
:102C90009091F200782F60E0292F30E0262B372B1F
:102CA00008C084918093F1003196415050402F5FCD
:102CB0003F4F4115510519F02830310590F390E050
:102CC0002830310509F491E08091E8008E778093F7
:102CD000E8004115510521F6992309F0C1CF06C03E
:102CE0008091FF03882341F0853041F08091E80016
:102CF00082FFF6CF80E0089582E0089583E0089592
:102D0000BF92CF92DF92EF92FF920F931F93CF93D8
:102D1000DF93182F092F7B016A01BCD1B82E8823BD
:102D2000A9F5812F902F9C01E901C114D10439F03C
:102D3000F60180819181E81AF90AC80FD91F00E0D5
:102D400010E021C08091E80085FD15C08091E80069
:102D50008B778093E800C114D10449F0F60180819B
:102D60009181800F911F9183808385E010C092D163
:102D7000882349F00CC08091F10089930894E10800
:102D8000F1080F5F1F4FE114F104E1F68B2DDF9185
:102D9000CF911F910F91FF90EF90DF90CF90BF9058
:102DA0000895BF92CF92DF92EF92FF920F931F93FD
:102DB000CF93DF938C01EB016A016CD1B82E88238D
:102DC000B1F521970C0F1D1F2196C114D10439F0C4
:102DD000F60180819181C81BD90B081B190BEE24C9
:102DE000FF2423C08091E80085FD15C08091E80094
:102DF0008E778093E800C114D10449F0F6018081F8
:102E000091818E0D9F1D9183808385E011C042D1F9
:102E1000882359F00DC0F80180818093F1000150A2
:102E2000104021970894E11CF11C2097D9F68B2DB6
:102E3000DF91CF911F910F91FF90EF90DF90CF9096
:102E4000BF900895BF92CF92DF92EF92FF920F93BF
:102E50001F93CF93DF93182F092F7B016A011AD19B
:102E6000B82E8823A9F5812F902F9C01E901C11468
:102E7000D10439F0F60180819181E81AF90AC80F6E
:102E8000D91F00E010E021C08091E80085FD15C049
:102E90008091E8008E778093E800C114D10449F056
:102EA000F60180819181800F911F9183808385E05D
:102EB00010C0F0D0882349F00CC089918093F100B4
:102EC0000894E108F1080F5F1F4FE114F104E1F6E7
:102ED0008B2DDF91CF911F910F91FF90EF90DF909D
:102EE000CF90BF900895DF92EF92FF920F931F93C0
:102EF000CF93DF93EC018B01CDD0D82E882361F5E1
:102F00000115110529F0F80180819181C81BD90BA9
:102F1000EE24FF241FC08091E80085FD15C080913C
:102F2000E8008E778093E8000115110549F0F8015B
:102F3000808191818E0D9F1D9183808385E00DC0DE
:102F4000A9D0882339F009C01092F1002197089484
:102F5000E11CF11C2097F9F68D2DDF91CF911F9187
:102F60000F91FF90EF90DF900895382F282F2EC0FB
:102F7000822F8F708093E900231721F4762F942FEE
:102F800050E006C07091EC009091ED005091F0007F
:102F900091FF1BC08091EB008E7F8093EB008091AE
:102FA000ED008D7F8093ED008091EB008160809338
:102FB000EB007093EC009093ED005093F000809143
:102FC000EE0087FD02C080E008952F5F273080F279
:102FD0003F703093E90081E008950F931F93CF93E2
:102FE000DF93062FEC0110E02AC09881992329F184
:102FF0006B81E981FA812C81892F8F70873018F5D8
:10300000223010F452E001C056E040E028E030E009
:1030100003C04F5F220F331F2E173F07D0F3629577
:10302000660F660F607C991F9927991F692B42953F
:10303000407F452B9ADF882331F01F5F25961017BC
:10304000A0F281E001C080E0DF91CF911F910F914C
:1030500008958091000488239CF404C08091FF03AC
:103060008823B9F08091E80082FFF8CF8091E800D2
:103070008B778093E80008958091FF03882349F0BF
:103080008091E80080FFF8CF8091E8008E778093F0
:10309000E80008954091E4005091E50024E6809115
:1030A000EC0080FF24C08091E80080FD1EC080916C
:1030B000FF03882311F482E00895853011F483E042
:1030C00008958091EB0085FF02C081E00895809112
:1030D000E4009091E5008417950709F3222311F489
:1030E00084E008952150AC01DACF80E0089580910A
:1030F000E80082FFDCCFF9CFEF92FF920F931F938E
:103100004FD056D008ED10E0F80180818F77808392
:1031100080818068808380818F7D808319BC10923C
:10312000FF031092FB031092FD031092FC0380EE4C
:10313000E82EF12CF70180818B7F8083F80180815C
:103140008160808380E060E042E00FDFE1EEF0E04C
:1031500080818E7F8083E2EEF0E0808181608083D9
:10316000808188608083F70180818E7F8083F80171
:103170008081806180831F910F91FF90EF9008956F
:10318000E8EDF0E080818F7E8083E7EDF0E08081E4
:103190008160808384E082BF81E08093FE03ACCFB6
:1031A000E8EDF0E080818E7F80831092E200089548
:1031B0001092DA001092E10008951F920F920FB65C
:1031C0000F9211241F932F933F934F935F936F930D
:1031D0007F938F939F93AF93BF93EF93FF93109140
:1031E000E9008091EC001092E9008091F000877F67
:1031F0008093F0007894E9D01092E9008091F0007B
:1032000088608093F0001F701093E900FF91EF91A8
:10321000BF91AF919F918F917F916F915F914F91EE
:103220003F912F911F910F900FBE0F901F901895F7
:103230001F920F920FB60F9211242F933F934F932B
:103240005F936F937F938F939F93AF93BF93EF930E
:10325000FF938091E10082FF0AC08091E20082FF2B
:1032600006C08091E1008B7F8093E10019D28091AC
:10327000DA0080FF1FC08091D80080FF1BC08091C2
:10328000DA008E7F8093DA008091D90080FF0DC034
:1032900080E189BD82E189BD09B400FEFDCF81E0F6
:1032A0008093FF030E94C70005C019BC1092FF0362
:1032B0000E94C9008091E10080FF18C08091E20067
:1032C00080FF14C08091E2008E7F8093E2008091A5
:1032D000E20080618093E2008091D8008062809358
:1032E000D80019BC85E08093FF03DAD18091E1001A
:1032F00084FF2FC08091E20084FF2BC080E189BD54
:1033000082E189BD09B400FEFDCF8091D8008F7D98
:103310008093D8008091E1008F7E8093E1008091BE
:10332000E2008F7E8093E2008091E20081608093D2
:10333000E2008091FB03882311F084E007C08091B4
:10334000E30087FD02C081E001C083E08093FF03BA
:10335000A7D18091E10083FF27C08091E20083FF25
:1033600023C08091E100877F8093E10082E0809319
:10337000FF031092FB038091E1008E7F8093E100B8
:103380008091E2008E7F8093E2008091E200806174
:103390008093E20080E060E042E0E7DD8091F000B1
:1033A00088608093F0007CD1FF91EF91BF91AF9145
:1033B0009F918F917F916F915F914F913F912F914D
:1033C0000F900FBE0F901F9018951F93DF93CF9310
:1033D000CDB7DEB7AC970FB6F894DEBF0FBECDBF4A
:1033E000E0E0F4E08091F100819324E0E830F2071E
:1033F000C9F70E94D9008091E80083FF39C180910C
:10340000000430910104353009F487C0363040F4AF
:103410003130C9F1313070F0333009F029C133C097
:10342000383009F4F6C0393009F405C1363009F0F6
:103430001FC196C0803821F0823809F019C108C038
:103440009091FC038091FD03882399F0926011C054
:10345000809104048F708093E9008091EB0090E0EC
:1034600025E0969587952A95E1F7982F917010920F
:10347000E9008091E800877F8093E8009093F10055
:103480001092F100D1C0882319F0823009F0F0C009
:1034900090E08F719070009721F0029709F0E8C0DA
:1034A0000CC080910204813009F0E2C01092FD034B
:1034B000333069F58093FD032AC08091020488238C
:1034C00031F5209104042F7009F4D2C02093E90053
:1034D0008091EB0080FF1BC0333021F48091EB0022
:1034E000806213C08091EB0080618093EB0081E0EB
:1034F00090E002C0880F991F2A95E2F78093EA00B6
:103500001092EA008091EB0088608093EB001092AB
:10351000E9008091E800877F8AC0882309F0A8C06D
:10352000109102041F778091E3008078812B8093B3
:10353000E3008091E800877F8093E8008ADD809136
:10354000E80080FFFCCF8091E30080688093E30077
:10355000112311F482E001C083E08093FF0388C04F
:103560008058823008F084C0809102049091030456
:1035700023E08C3D920709F033C083E08C838AE21C
:103580008B837FB7F894DE0115966EE040E050E043
:1035900011E2E62FF0E010935700849140FF03C042
:1035A00082958F706F5F8F70282F30E08A3018F00F
:1035B000C901C79602C0C901C0968D939D934F5F04
:1035C0005F4F4431510529F77FBF8091E800877F25
:1035D0008093E800CE0103966AE270E0C3DA13C07C
:1035E00060910404AE014F5F5F4F0E94A801BC01CF
:1035F000009709F43DC08091E800877F8093E80040
:1036000089819A8115DB8091E8008B778093E800AF
:103610002FC0803869F58091E800877F8093E800AB
:103620008091FB038093F1008091E8008E77809376
:10363000E8000FDD1DC08823D9F490910204923078
:10364000B8F48091E800877F8093E8009093FB03B3
:1036500000DD8091FB03882331F48091E30087FD36
:1036600002C081E001C084E08093FF030E94DD007E
:103670008091E80083FF0AC08091E800877F8093F3
:10368000E8008091EB0080628093EB00AC960FB66F
:10369000F894DEBF0FBECDBFCF91DF911F9108958B
:1036A00008951F938091FF03882371F01091E90022
:1036B0008091EC001092E9008091E80083FF01C046
:1036C00084DE1F701093E9001F910895CF92DF925E
:1036D000EF92FF920F931F93DF93CF9300D0CDB75C
:1036E000DEB78C018091FF03843009F010C1F8012E
:1036F00096819F709093E9008091E80082FFCDC091
:103700009093E9001A8219822CE0E22EF12CE00E4F
:10371000F11E6E010894C11CD11C05C0F80180ADDA
:10372000882309F0BAC0C7016FE070E0A601E8DAAB
:103730008530A1F3F80184859585A685B7858555E3
:103740009345A244B34481F4F801918D8385981781
:1037500058F4808D90E08F719070892B29F4828DC0
:10376000882311F0813180F08091EB00806280939A
:10377000EB00F80181818F708093E9008091EB006C
:1037800080628093EB0089C01A8219829BE1E92E46
:10379000F12CE00EF11E6E010894C11CD11C05C075
:1037A000F80180AD882309F078C0F801628DC70167
:1037B00070E0A601A5DA853099F38091E8008B7757
:1037C0008093E800F801808D87FF04C081818F70AD
:1037D0008093E900C8010E94CB0091E09827F8018E
:1037E00097AB25E533E542E453E523A734A745A786
:1037F00056A7208931894289538927A730AB41AB2D
:1038000052AB248935894689578923AB34AB45AB04
:1038100056AB882351F4211531054105510529F096
:103820008091EB0080628093EB00F80186818F70BD
:103830008093E90004C0F80180AD882371F5809180
:10384000EB0085FDF8CFF80181818F708093E9004E
:1038500004C0F80180AD882301F58091EB0085FD5F
:10386000F8CF1A8219828BE2E82EF12CE00EF11EBD
:103870006E010894C11CD11C04C0F80180AD8823DE
:1038800061F4C7016DE070E0A601DCDA8530A9F3D0
:103890008091E8008E778093E800F80180AD88235E
:1038A000B1F14681842F8F7021E030E0B90102C070
:1038B000660F771F8A95E2F76093EA001092EA009C
:1038C0009181892F8F7002C0220F331F8A95E2F7F2
:1038D0002093EA001092EA004F704093E900809133
:1038E000EB0080618093EB008091EB008860809317
:1038F000EB009F709093E9008091EB0080618093D2
:10390000EB008091EB0088608093EB0010AE0F908D
:103910000F90CF91DF911F910F91FF90EF90DF906B
:10392000CF900895CF93DF93EC010C96FC018DE2CC
:10393000DF011D928A95E9F782E08C838987CE01A9
:10394000019661E04ADB882331F0CE01069661E002
:1039500044DB811181E0DF91CF910895CF93DF9314
:10396000EC018091E80083FF33C0888190E02091D2
:103970000404309105042817390751F5809101049A
:103980008E3F79F08F3F21F580910004813201F55F
:103990008091E800877F8093E8005BDB81E088AF5F
:1039A00017C080910004813A99F48091E800877FE4
:1039B0008093E8008091E80080FFFCCF8B858150E8
:1039C0008093F1008091E8008E778093E80041DBDE
:1039D000DF91CF910895FC0107C08091C80085FF59
:1039E000FCCF9093CE00319690819923B1F7089542
:1039F000629FD001739FF001829FE00DF11D649FD3
:103A0000E00DF11D929FF00D839FF00D749FF00D5E
:103A1000659FF00D9927729FB00DE11DF91F639FFF
:103A2000B00DE11DF91FBD01CF0111240895991BAF
:103A300079E004C0991F961708F0961B881F7A95A5
:103A4000C9F78095089597FB092E07260AD077FDC0
:103A500004D02ED006D000201AF4709561957F4FC7
:103A60000895F6F7909581959F4F0895A1E21A2E3B
:103A7000AA1BBB1BFD010DC0AA1FBB1FEE1FFF1F12
:103A8000A217B307E407F50720F0A21BB30BE40B62
:103A9000F50B661F771F881F991F1A9469F76095A9
:103AA0007095809590959B01AC01BD01CF01089563
:103AB000AA1BBB1B51E107C0AA1FBB1FA617B70754
:103AC00010F0A61BB70B881F991F5A95A9F7809570
:0C3AD0009095BC01CD010895F894FFCF43
:103ADC004F70656E696E672046696C65200D200A13
:103AEC00004D6F756E74656420200D200A006A61AC
:103AFC0079636F6E2E78626D0046696C6520466F37
:103B0C00756E64200D200A00008340000001044003
:103B1C000000010100000000000000000000000097
:103B2C000000000000000000000000000000000089
:103B3C000000000000000000000000000000000079
:103B4C0000700000000000000A00000000000000EF
:103B5C00000000008000021F0000004C5546410090
:103B6C0000000044617461666C6173682044697381
:103B7C006B0000302E30301F1C1F1E1F1E1F1F1EFF
:103B8C001F1E1F222A2B2C3A3B3C3D3E3F5B5D7C8B
:023B9C007F00A8
:00000001FF
